{
  "contractName": "TestWallet",
  "abi": [
    {
      "constant": true,
      "inputs": [
        {
          "name": "",
          "type": "uint256"
        }
      ],
      "name": "transactions",
      "outputs": [
        {
          "name": "destination",
          "type": "address"
        },
        {
          "name": "value",
          "type": "uint256"
        },
        {
          "name": "data",
          "type": "bytes"
        },
        {
          "name": "executed",
          "type": "bool"
        }
      ],
      "payable": false,
      "stateMutability": "view",
      "type": "function"
    },
    {
      "constant": true,
      "inputs": [],
      "name": "transactionCount",
      "outputs": [
        {
          "name": "",
          "type": "uint256"
        }
      ],
      "payable": false,
      "stateMutability": "view",
      "type": "function"
    },
    {
      "constant": false,
      "inputs": [
        {
          "name": "destination",
          "type": "address"
        },
        {
          "name": "value",
          "type": "uint256"
        },
        {
          "name": "data",
          "type": "bytes"
        }
      ],
      "name": "submitTransaction",
      "outputs": [
        {
          "name": "transactionId",
          "type": "uint256"
        }
      ],
      "payable": false,
      "stateMutability": "nonpayable",
      "type": "function"
    },
    {
      "constant": false,
      "inputs": [
        {
          "name": "transactionId",
          "type": "uint256"
        }
      ],
      "name": "executeTransaction",
      "outputs": [],
      "payable": false,
      "stateMutability": "nonpayable",
      "type": "function"
    },
    {
      "inputs": [],
      "payable": false,
      "stateMutability": "nonpayable",
      "type": "constructor"
    },
    {
      "payable": true,
      "stateMutability": "payable",
      "type": "fallback"
    },
    {
      "anonymous": false,
      "inputs": [
        {
          "indexed": true,
          "name": "sender",
          "type": "address"
        },
        {
          "indexed": false,
          "name": "value",
          "type": "uint256"
        }
      ],
      "name": "Deposit",
      "type": "event"
    },
    {
      "anonymous": false,
      "inputs": [
        {
          "indexed": true,
          "name": "transactionId",
          "type": "uint256"
        }
      ],
      "name": "Execution",
      "type": "event"
    }
  ],
  "bytecode": "0x6060604052341561000f57600080fd5b61060c8061001e6000396000f300606060405260043610610062576000357c0100000000000000000000000000000000000000000000000000000000900463ffffffff1680639ace38c2146100bc578063b77bf600146101ba578063c6427474146101e3578063ee22610b1461027c575b60003411156100ba573373ffffffffffffffffffffffffffffffffffffffff167fe1fffcc4923d04b559f4d29a8bfc6cda04eb5b0d3c460751c2402c5c5cc9109c346040518082815260200191505060405180910390a25b005b34156100c757600080fd5b6100dd600480803590602001909190505061029f565b604051808573ffffffffffffffffffffffffffffffffffffffff1673ffffffffffffffffffffffffffffffffffffffff16815260200184815260200180602001831515151581526020018281038252848181546001816001161561010002031660029004815260200191508054600181600116156101000203166002900480156101a85780601f1061017d576101008083540402835291602001916101a8565b820191906000526020600020905b81548152906001019060200180831161018b57829003601f168201915b50509550505050505060405180910390f35b34156101c557600080fd5b6101cd6102fb565b6040518082815260200191505060405180910390f35b34156101ee57600080fd5b610266600480803573ffffffffffffffffffffffffffffffffffffffff1690602001909190803590602001909190803590602001908201803590602001908080601f01602080910402602001604051908101604052809392919081815260200183838082843782019150505050505091905050610301565b6040518082815260200191505060405180910390f35b341561028757600080fd5b61029d6004808035906020019091905050610317565b005b60006020528060005260406000206000915090508060000160009054906101000a900473ffffffffffffffffffffffffffffffffffffffff169080600101549080600201908060030160009054906101000a900460ff16905084565b60015481565b600061030e848484610444565b90509392505050565b6000806000838152602001908152602001600020905060018160030160006101000a81548160ff0219169083151502179055508060000160009054906101000a900473ffffffffffffffffffffffffffffffffffffffff1673ffffffffffffffffffffffffffffffffffffffff1681600101548260020160405180828054600181600116156101000203166002900480156103f35780601f106103c8576101008083540402835291602001916103f3565b820191906000526020600020905b8154815290600101906020018083116103d657829003601f168201915b505091505060006040518083038185876187965a03f1925050501561044057817f33e13ecb54c3076d8e8bb8c2881800a4d972b792045ffae98fdf46df365fed7560405160405180910390a25b5050565b600060015490506080604051908101604052808573ffffffffffffffffffffffffffffffffffffffff1681526020018481526020018381526020016000151581525060008083815260200190815260200160002060008201518160000160006101000a81548173ffffffffffffffffffffffffffffffffffffffff021916908373ffffffffffffffffffffffffffffffffffffffff16021790555060208201518160010155604082015181600201908051906020019061050592919061053b565b5060608201518160030160006101000a81548160ff02191690831515021790555090505060018054016001819055509392505050565b828054600181600116156101000203166002900490600052602060002090601f016020900481019282601f1061057c57805160ff19168380011785556105aa565b828001600101855582156105aa579182015b828111156105a957825182559160200191906001019061058e565b5b5090506105b791906105bb565b5090565b6105dd91905b808211156105d95760008160009055506001016105c1565b5090565b905600a165627a7a72305820de88ce774ce9a42d7170557f49bddba45f6973a35c8555152412673a557b27180029",
  "source": "pragma solidity ^0.4.11;\ncontract TestWallet {\n\n    event Deposit(address indexed sender, uint value);\n    event Execution(uint indexed transactionId);\n    \n    mapping (uint => Transaction) public transactions;\n    uint public transactionCount;\n    struct Transaction {\n        address destination;\n        uint value;\n        bytes data;\n        bool executed;\n    }\n    function()\n        public\n        payable\n    {\n        if (msg.value > 0)\n            Deposit(msg.sender, msg.value);\n    }\n    function TestWallet()\n        public\n    {\n        \n    }\n    function submitTransaction(address destination, uint value, bytes data)\n        public\n        returns (uint transactionId)\n    {\n        transactionId = addTransaction(destination, value, data);\n    }\n    function executeTransaction(uint transactionId)\n        public\n    {\n        Transaction storage txToExecute = transactions[transactionId];\n        txToExecute.executed = true;\n        if (txToExecute.destination.call.value(txToExecute.value)(txToExecute.data))\n            Execution(transactionId);\n            \n    }\n    function addTransaction(address destination, uint value, bytes data)\n    internal\n    returns (uint transactionId)\n    {\n        transactionId = transactionCount;\n        transactions[transactionId] = Transaction({\n            destination: destination,\n            value: value,\n            data: data,\n            executed: false\n        });\n        transactionCount = transactionCount + 1;\n    }\n}",
  "sourcePath": "/Users/henrytran/Desktop/hack-western-4 V2/contracts/TestWallet.sol",
  "compiler": {
    "name": "solc",
    "version": "0.4.18+commit.9cf6e910.Emscripten.clang"
  },
  "schemaVersion": "1.0.1",
  "updatedAt": "2017-11-25T03:43:02.504Z"
}